:020000020000FC
:100000000FEF0DBF08E00EBF00E004B90FEF05B918
:100010000FEF07B900EF08B90FEF0AB900E00BB90D
:1000200000E80093610004E0009361000E9440003A
:100030006627772744275527882705B300FFFDCF7C
:10004000A89A0EE906BD13B110FF439511FF4A951A
:100050004F700E9445005BB963956F706A3009F07C
:10006000ECCF78B973957F71072F0F70142F101B89
:100070000AF0E3CF77278395082F0295702BDDCF09
:1000800005E005BD0EE906BD0895552757E7403048
:1000900071F151E4413059F15BE3423041F15BE6EB
:1000A000433029F15DE4443011F15EE64530F9F06A
:1000B0005EE74630E1F053E44730C9F05FE748308F
:1000C000B1F05FE4493099F05FE54A3081F05CE7D8
:1000D0004B3069F056E34C3051F059E74D3039F070
:1000E0005EE34E3021F05EE14F3009F0089508954F
:00000001FF
