:020000020000FC
:100000000FEF0DBF08E00EBF0FE007B900EF08B912
:100010000FEF0AB900E00BB900E8009361000FE0B0
:10002000009361000E9423004427552705B300FF79
:10003000FDCFA89A0EE906BD43954F7048B90E94BE
:1000400028005BB9F3CF05E005BD0EE906BD0895B4
:10005000552757E7403071F151E4413059F15BE3E6
:10006000423041F15BE6433029F15DE4443011F167
:100070005EE64530F9F05EE74630E1F053E44730A4
:10008000C9F05FE74830B1F05FE4493099F05FE5CF
:100090004A3081F05CE74B3069F056E34C3051F068
:1000A00059E74D3039F05EE34E3021F05EE14F30DC
:0600B00009F00895089517
:00000001FF
